:100000000C942A000C9434000C9434000C943400AA
:100010000C9434000C9434000C9434000C94340090
:100020000C9434000C9434000C9434000C94340080
:100030000C9434000C9434000C9434000C94340070
:100040000C9434000C9434000C9434000C94340060
:100050000C94340011241FBECFE5D8E0DEBFCDBF25
:100060000E9436000C9454000C94000087B3816009
:1000700087BB26B381E090E002C0880F991F2A95C4
:10008000E2F78095909598B3892388BB2FE38DE0A4
:1000900093E0215080409040E1F700C0000098B309
:0C00A00081E0892788BBF2CFF894FFCFE5
:00000001FF
