:100000000C942A000C943C000C943C000C943C0092
:100010000C943C000C943C000C943C000C943C0070
:100020000C943C000C943C000C943C000C943C0060
:100030000C943C000C943C000C943C000C943C0050
:100040000C943C000C943C000C943C000C943C0040
:100050000C943C0011241FBECFE5D8E0DEBFCDBF1D
:1000600020E0A0E6B0E001C01D92A037B207E1F7A2
:100070000E94E4000C9401010C940000FC01EE0FBE
:10008000FF1FE05AFF4F208131812F5F3F4F3183A7
:100090002083253F31400CF47BC0FC01EE0FFF1F95
:1000A000E859FF4F20813181232B09F06AC0FC0100
:1000B000EE0FFF1FE859FF4F21E030E0318320832E
:1000C000009771F448B3FC01EE0FFF1FE459FF4F96
:1000D000008002C0220F331F0A94E2F7242B28BBB2
:1000E0008130910581F442B3FC01EE0FFF1FE4590A
:1000F000FF4F21E030E0008002C0220F331F0A943E
:10010000E2F7242B22BBFC01EE0FFF1FE459FF4F47
:10011000208131812F5F3F4F31832083273031058C
:1001200014F52FC0009711F44FEF48BB81309105B3
:1001300011F44FEF42BBE3ECF9E03197F1F700C067
:100140000000009711F440E848BB8130910511F49C
:1001500040E842BBE3ECF9E03197F1F700C0000062
:100160002F5F3F4F02C020E030E02A303105D4F24B
:10017000ECE6F0E0118210821382128220E828BBA4
:1001800022BB880F991FFC01E05AFF4F1182108299
:100190000895FC01EE0FFF1FEC59FF4F20813181C4
:1001A0002F5F3F4F31832083253F314064F0880F1C
:1001B000991FFC01E859FF4F11821082FC01EC5994
:1001C000FF4F1182108208958FE787BB81BB80E8C3
:1001D00088BB82BBB79905C080E090E00E943E00DA
:1001E00004C080E090E00E94C900879905C081E0CA
:1001F00090E00E943E00EECF81E090E00E94C900B6
:06020000E9CFF894FFCFE6
:00000001FF
